{
  "contractName": "MyContract",
  "abi": [
    {
      "inputs": [],
      "stateMutability": "nonpayable",
      "type": "constructor"
    },
    {
      "inputs": [],
      "name": "F",
      "outputs": [
        {
          "internalType": "uint256",
          "name": "",
          "type": "uint256"
        }
      ],
      "stateMutability": "view",
      "type": "function",
      "constant": true
    },
    {
      "inputs": [],
      "name": "T",
      "outputs": [
        {
          "internalType": "uint256",
          "name": "",
          "type": "uint256"
        }
      ],
      "stateMutability": "view",
      "type": "function",
      "constant": true
    },
    {
      "inputs": [],
      "name": "switch_count",
      "outputs": [
        {
          "internalType": "uint256",
          "name": "",
          "type": "uint256"
        }
      ],
      "stateMutability": "view",
      "type": "function",
      "constant": true
    },
    {
      "inputs": [
        {
          "internalType": "uint256",
          "name": "",
          "type": "uint256"
        }
      ],
      "name": "switches",
      "outputs": [
        {
          "internalType": "uint256",
          "name": "id",
          "type": "uint256"
        },
        {
          "internalType": "string",
          "name": "name",
          "type": "string"
        },
        {
          "internalType": "string",
          "name": "ip_address",
          "type": "string"
        },
        {
          "internalType": "uint256",
          "name": "rule_count",
          "type": "uint256"
        }
      ],
      "stateMutability": "view",
      "type": "function",
      "constant": true
    },
    {
      "inputs": [
        {
          "internalType": "uint256",
          "name": "switch_id",
          "type": "uint256"
        },
        {
          "internalType": "string",
          "name": "_name",
          "type": "string"
        },
        {
          "internalType": "string",
          "name": "_ip_address",
          "type": "string"
        }
      ],
      "name": "addSwitch",
      "outputs": [],
      "stateMutability": "nonpayable",
      "type": "function"
    },
    {
      "inputs": [
        {
          "internalType": "uint256",
          "name": "_switch_id",
          "type": "uint256"
        }
      ],
      "name": "getSwitch",
      "outputs": [
        {
          "internalType": "uint256",
          "name": "",
          "type": "uint256"
        },
        {
          "internalType": "string",
          "name": "",
          "type": "string"
        },
        {
          "internalType": "string",
          "name": "",
          "type": "string"
        },
        {
          "internalType": "uint256",
          "name": "",
          "type": "uint256"
        }
      ],
      "stateMutability": "view",
      "type": "function",
      "constant": true
    },
    {
      "inputs": [
        {
          "internalType": "uint256",
          "name": "_switch_id",
          "type": "uint256"
        },
        {
          "internalType": "string",
          "name": "_inport",
          "type": "string"
        },
        {
          "internalType": "string",
          "name": "_src_mac",
          "type": "string"
        },
        {
          "internalType": "string",
          "name": "_dst_mac",
          "type": "string"
        },
        {
          "internalType": "string",
          "name": "_priority",
          "type": "string"
        },
        {
          "internalType": "string",
          "name": "_outport",
          "type": "string"
        }
      ],
      "name": "addRule",
      "outputs": [],
      "stateMutability": "nonpayable",
      "type": "function"
    },
    {
      "inputs": [
        {
          "internalType": "uint256",
          "name": "_switch_id",
          "type": "uint256"
        },
        {
          "internalType": "uint256",
          "name": "_rule_id",
          "type": "uint256"
        }
      ],
      "name": "getRule",
      "outputs": [
        {
          "internalType": "uint256",
          "name": "",
          "type": "uint256"
        },
        {
          "internalType": "string",
          "name": "",
          "type": "string"
        },
        {
          "internalType": "string",
          "name": "",
          "type": "string"
        },
        {
          "internalType": "string",
          "name": "",
          "type": "string"
        },
        {
          "internalType": "string",
          "name": "",
          "type": "string"
        },
        {
          "internalType": "string",
          "name": "",
          "type": "string"
        }
      ],
      "stateMutability": "view",
      "type": "function",
      "constant": true
    },
    {
      "inputs": [
        {
          "internalType": "uint256",
          "name": "_switch_id",
          "type": "uint256"
        }
      ],
      "name": "getRuleCount",
      "outputs": [
        {
          "internalType": "uint256",
          "name": "",
          "type": "uint256"
        }
      ],
      "stateMutability": "view",
      "type": "function",
      "constant": true
    },
    {
      "inputs": [
        {
          "internalType": "uint256",
          "name": "_switch_id",
          "type": "uint256"
        },
        {
          "internalType": "string",
          "name": "_INPORT",
          "type": "string"
        },
        {
          "internalType": "string",
          "name": "_SRC",
          "type": "string"
        },
        {
          "internalType": "string",
          "name": "_DST",
          "type": "string"
        },
        {
          "internalType": "string",
          "name": "_priority",
          "type": "string"
        },
        {
          "internalType": "string",
          "name": "_OUTPORT",
          "type": "string"
        }
      ],
      "name": "verifyFlowRules",
      "outputs": [
        {
          "internalType": "uint256",
          "name": "",
          "type": "uint256"
        }
      ],
      "stateMutability": "view",
      "type": "function",
      "constant": true
    },
    {
      "inputs": [
        {
          "internalType": "string",
          "name": "a",
          "type": "string"
        },
        {
          "internalType": "string",
          "name": "b",
          "type": "string"
        }
      ],
      "name": "compareStrings",
      "outputs": [
        {
          "internalType": "bool",
          "name": "",
          "type": "bool"
        }
      ],
      "stateMutability": "pure",
      "type": "function",
      "constant": true
    }
  ],
  "bytecode": "0x608060405260006001553480156200001657600080fd5b506200009560016040518060400160405280600281526020017f53310000000000000000000000000000000000000000000000000000000000008152506040518060400160405280600d81526020017f3139322e3136382e3132382e33000000000000000000000000000000000000008152506200009b60201b60201c565b620002b6565b60016000815480929190620000b0906200020a565b91905055506000806000858152602001908152602001600020905083816000018190555082816001019080519060200190620000ee9291906200011a565b5081816002019080519060200190620001099291906200011a565b506000816003018190555050505050565b8280546200012890620001d4565b90600052602060002090601f0160209004810192826200014c576000855562000198565b82601f106200016757805160ff191683800117855562000198565b8280016001018555821562000198579182015b82811115620001975782518255916020019190600101906200017a565b5b509050620001a79190620001ab565b5090565b5b80821115620001c6576000816000905550600101620001ac565b5090565b6000819050919050565b60006002820490506001821680620001ed57607f821691505b6020821081141562000204576200020362000287565b5b50919050565b60006200021782620001ca565b91507fffffffffffffffffffffffffffffffffffffffffffffffffffffffffffffffff8214156200024d576200024c62000258565b5b600182019050919050565b7f4e487b7100000000000000000000000000000000000000000000000000000000600052601160045260246000fd5b7f4e487b7100000000000000000000000000000000000000000000000000000000600052602260045260246000fd5b61153080620002c66000396000f3fe608060405234801561001057600080fd5b50600436106100a95760003560e01c80636d279ef8116100715780636d279ef8146101545780636d341bd214610189578063825f1276146101b9578063881ec10b146101ec578063bed34bba1461021f578063e0d6a49a1461024f576100a9565b8063083c173f146100ae5780630fad376a146100de57806315d4aca2146100fa57806328811f59146101185780632bc80f3a14610136575b600080fd5b6100c860048036038101906100c39190610f59565b61026b565b6040516100d591906111f8565b60405180910390f35b6100f860048036038101906100f39190610f82565b61028a565b005b610102610303565b60405161010f91906111f8565b60405180910390f35b610120610309565b60405161012d91906111f8565b60405180910390f35b61013e61030e565b60405161014b91906111f8565b60405180910390f35b61016e60048036038101906101699190611102565b610313565b60405161018096959493929190611213565b60405180910390f35b6101a3600480360381019061019e9190611001565b610633565b6040516101b091906111f8565b60405180910390f35b6101d360048036038101906101ce9190610f59565b6109bd565b6040516101e39493929190611297565b60405180910390f35b61020660048036038101906102019190610f59565b610b13565b6040516102169493929190611297565b60405180910390f35b61023960048036038101906102349190610eed565b610c53565b60405161024691906111dd565b60405180910390f35b61026960048036038101906102649190611001565b610cac565b005b6000806000838152602001908152602001600020600301549050919050565b6001600081548092919061029d906113fc565b919050555060008060008581526020019081526020016000209050838160000181905550828160010190805190602001906102d9929190610dcd565b50818160020190805190602001906102f2929190610dcd565b506000816003018190555050505050565b60015481565b600181565b600581565b6000606080606080606060008060008a8152602001908152602001600020600401600089815260200190815260200160002090508060000154816001018260020183600301846004018560050184805461036c906113ca565b80601f0160208091040260200160405190810160405280929190818152602001828054610398906113ca565b80156103e55780601f106103ba576101008083540402835291602001916103e5565b820191906000526020600020905b8154815290600101906020018083116103c857829003601f168201915b505050505094508380546103f8906113ca565b80601f0160208091040260200160405190810160405280929190818152602001828054610424906113ca565b80156104715780601f1061044657610100808354040283529160200191610471565b820191906000526020600020905b81548152906001019060200180831161045457829003601f168201915b50505050509350828054610484906113ca565b80601f01602080910402602001604051908101604052809291908181526020018280546104b0906113ca565b80156104fd5780601f106104d2576101008083540402835291602001916104fd565b820191906000526020600020905b8154815290600101906020018083116104e057829003601f168201915b50505050509250818054610510906113ca565b80601f016020809104026020016040519081016040528092919081815260200182805461053c906113ca565b80156105895780601f1061055e57610100808354040283529160200191610589565b820191906000526020600020905b81548152906001019060200180831161056c57829003601f168201915b5050505050915080805461059c906113ca565b80601f01602080910402602001604051908101604052809291908181526020018280546105c8906113ca565b80156106155780601f106105ea57610100808354040283529160200191610615565b820191906000526020600020905b8154815290600101906020018083116105f857829003601f168201915b50505050509050965096509650965096509650509295509295509295565b60008061063f8861026b565b90506000600190505b8181116109ac5760008060008b81526020019081526020016000206004016000838152602001908152602001600020905061070f81600101805461068b906113ca565b80601f01602080910402602001604051908101604052809291908181526020018280546106b7906113ca565b80156107045780601f106106d957610100808354040283529160200191610704565b820191906000526020600020905b8154815290600101906020018083116106e757829003601f168201915b50505050508a610c53565b80156107ad57506107ac816002018054610728906113ca565b80601f0160208091040260200160405190810160405280929190818152602001828054610754906113ca565b80156107a15780601f10610776576101008083540402835291602001916107a1565b820191906000526020600020905b81548152906001019060200180831161078457829003601f168201915b505050505089610c53565b5b801561084b575061084a8160030180546107c6906113ca565b80601f01602080910402602001604051908101604052809291908181526020018280546107f2906113ca565b801561083f5780601f106108145761010080835404028352916020019161083f565b820191906000526020600020905b81548152906001019060200180831161082257829003601f168201915b505050505088610c53565b5b80156108e957506108e8816004018054610864906113ca565b80601f0160208091040260200160405190810160405280929190818152602001828054610890906113ca565b80156108dd5780601f106108b2576101008083540402835291602001916108dd565b820191906000526020600020905b8154815290600101906020018083116108c057829003601f168201915b505050505087610c53565b5b80156109875750610986816005018054610902906113ca565b80601f016020809104026020016040519081016040528092919081815260200182805461092e906113ca565b801561097b5780601f106109505761010080835404028352916020019161097b565b820191906000526020600020905b81548152906001019060200180831161095e57829003601f168201915b505050505086610c53565b5b1561099857600593505050506109b3565b5080806109a4906113fc565b915050610648565b5060019150505b9695505050505050565b600060608060008060008087815260200190815260200160002090508060000154816001018260020183600301548280546109f7906113ca565b80601f0160208091040260200160405190810160405280929190818152602001828054610a23906113ca565b8015610a705780601f10610a4557610100808354040283529160200191610a70565b820191906000526020600020905b815481529060010190602001808311610a5357829003601f168201915b50505050509250818054610a83906113ca565b80601f0160208091040260200160405190810160405280929190818152602001828054610aaf906113ca565b8015610afc5780601f10610ad157610100808354040283529160200191610afc565b820191906000526020600020905b815481529060010190602001808311610adf57829003601f168201915b505050505091509450945094509450509193509193565b6000602052806000526040600020600091509050806000015490806001018054610b3c906113ca565b80601f0160208091040260200160405190810160405280929190818152602001828054610b68906113ca565b8015610bb55780601f10610b8a57610100808354040283529160200191610bb5565b820191906000526020600020905b815481529060010190602001808311610b9857829003601f168201915b505050505090806002018054610bca906113ca565b80601f0160208091040260200160405190810160405280929190818152602001828054610bf6906113ca565b8015610c435780601f10610c1857610100808354040283529160200191610c43565b820191906000526020600020905b815481529060010190602001808311610c2657829003601f168201915b5050505050908060030154905084565b600081604051602001610c6691906111c6565b6040516020818303038152906040528051906020012083604051602001610c8d91906111c6565b6040516020818303038152906040528051906020012014905092915050565b60008060008881526020019081526020016000209050806003016000815480929190610cd7906113fc565b91905055506040518060c00160405280826003015481526020018781526020018681526020018581526020018481526020018381525081600401600083600301548152602001908152602001600020600082015181600001556020820151816001019080519060200190610d4c929190610dcd565b506040820151816002019080519060200190610d69929190610dcd565b506060820151816003019080519060200190610d86929190610dcd565b506080820151816004019080519060200190610da3929190610dcd565b5060a0820151816005019080519060200190610dc0929190610dcd565b5090505050505050505050565b828054610dd9906113ca565b90600052602060002090601f016020900481019282610dfb5760008555610e42565b82601f10610e1457805160ff1916838001178555610e42565b82800160010185558215610e42579182015b82811115610e41578251825591602001919060010190610e26565b5b509050610e4f9190610e53565b5090565b5b80821115610e6c576000816000905550600101610e54565b5090565b6000610e83610e7e8461131b565b6112ea565b905082815260208101848484011115610e9b57600080fd5b610ea6848285611388565b509392505050565b600082601f830112610ebf57600080fd5b8135610ecf848260208601610e70565b91505092915050565b600081359050610ee7816114e3565b92915050565b60008060408385031215610f0057600080fd5b600083013567ffffffffffffffff811115610f1a57600080fd5b610f2685828601610eae565b925050602083013567ffffffffffffffff811115610f4357600080fd5b610f4f85828601610eae565b9150509250929050565b600060208284031215610f6b57600080fd5b6000610f7984828501610ed8565b91505092915050565b600080600060608486031215610f9757600080fd5b6000610fa586828701610ed8565b935050602084013567ffffffffffffffff811115610fc257600080fd5b610fce86828701610eae565b925050604084013567ffffffffffffffff811115610feb57600080fd5b610ff786828701610eae565b9150509250925092565b60008060008060008060c0878903121561101a57600080fd5b600061102889828a01610ed8565b965050602087013567ffffffffffffffff81111561104557600080fd5b61105189828a01610eae565b955050604087013567ffffffffffffffff81111561106e57600080fd5b61107a89828a01610eae565b945050606087013567ffffffffffffffff81111561109757600080fd5b6110a389828a01610eae565b935050608087013567ffffffffffffffff8111156110c057600080fd5b6110cc89828a01610eae565b92505060a087013567ffffffffffffffff8111156110e957600080fd5b6110f589828a01610eae565b9150509295509295509295565b6000806040838503121561111557600080fd5b600061112385828601610ed8565b925050602061113485828601610ed8565b9150509250929050565b61114781611372565b82525050565b60006111588261134b565b6111628185611356565b9350611172818560208601611397565b61117b816114d2565b840191505092915050565b60006111918261134b565b61119b8185611367565b93506111ab818560208601611397565b80840191505092915050565b6111c08161137e565b82525050565b60006111d28284611186565b915081905092915050565b60006020820190506111f2600083018461113e565b92915050565b600060208201905061120d60008301846111b7565b92915050565b600060c08201905061122860008301896111b7565b818103602083015261123a818861114d565b9050818103604083015261124e818761114d565b90508181036060830152611262818661114d565b90508181036080830152611276818561114d565b905081810360a083015261128a818461114d565b9050979650505050505050565b60006080820190506112ac60008301876111b7565b81810360208301526112be818661114d565b905081810360408301526112d2818561114d565b90506112e160608301846111b7565b95945050505050565b6000604051905081810181811067ffffffffffffffff82111715611311576113106114a3565b5b8060405250919050565b600067ffffffffffffffff821115611336576113356114a3565b5b601f19601f8301169050602081019050919050565b600081519050919050565b600082825260208201905092915050565b600081905092915050565b60008115159050919050565b6000819050919050565b82818337600083830152505050565b60005b838110156113b557808201518184015260208101905061139a565b838111156113c4576000848401525b50505050565b600060028204905060018216806113e257607f821691505b602082108114156113f6576113f5611474565b5b50919050565b60006114078261137e565b91507fffffffffffffffffffffffffffffffffffffffffffffffffffffffffffffffff82141561143a57611439611445565b5b600182019050919050565b7f4e487b7100000000000000000000000000000000000000000000000000000000600052601160045260246000fd5b7f4e487b7100000000000000000000000000000000000000000000000000000000600052602260045260246000fd5b7f4e487b7100000000000000000000000000000000000000000000000000000000600052604160045260246000fd5b6000601f19601f8301169050919050565b6114ec8161137e565b81146114f757600080fd5b5056fea26469706673582212202f7d64c62b5e5d73401922e91a38b7a3cb3dffc33ef895838dc374799b39421e64736f6c63430008000033",
  "immutableReferences": {},
  "source": "// SPDX-License-Identifier: GPL-3.0\npragma solidity >=0.4.22 <0.9.0;\n\ncontract MyContract {\n\n    struct Flow_info {\n        uint rule_id;\n        string inport;\n        string src_mac;\n        string dst_mac;\n        string priority;\n        string outport;\n    }\n\n    struct Switch {\n        uint256 id;\n        string name;\n        string ip_address;\n        uint rule_count;\n        mapping(uint => Flow_info) rules;\n    }\n\n    mapping(uint => Switch) public switches;\n    uint public switch_count = 0;\n\n    uint public constant T = 5;\n    uint public constant F = 1;\n\n    constructor() {\n        addSwitch(1, \"S1\", \"192.168.128.3\");\n    }\n\n    function addSwitch(uint switch_id, string memory _name, string memory _ip_address) public {\n        switch_count++;\n        Switch storage newSwitch = switches[switch_id];\n        newSwitch.id = switch_id;\n        newSwitch.name = _name;\n        newSwitch.ip_address = _ip_address;\n        newSwitch.rule_count = 0;\n    }\n\n    function getSwitch(uint _switch_id) view public returns (uint, string memory, string memory, uint) {\n        Switch storage s = switches[_switch_id];\n        return (s.id, s.name, s.ip_address, s.rule_count);\n    }\n\n    function addRule(\n        uint _switch_id, \n        string memory _inport, \n        string memory _src_mac, \n        string memory _dst_mac, \n        string memory _priority, \n        string memory _outport\n    ) public {\n        Switch storage s = switches[_switch_id];\n        s.rule_count++;\n        s.rules[s.rule_count] = Flow_info(s.rule_count, _inport, _src_mac, _dst_mac, _priority, _outport);\n    }\n\n    function getRule(uint _switch_id, uint _rule_id) view public returns (\n        uint, \n        string memory, \n        string memory, \n        string memory, \n        string memory, \n        string memory\n    ) {\n        Flow_info storage r = switches[_switch_id].rules[_rule_id];\n        return (r.rule_id, r.inport, r.src_mac, r.dst_mac, r.priority, r.outport);\n    }\n\n    function getRuleCount(uint _switch_id) view public returns(uint) {\n        return switches[_switch_id].rule_count;\n    }\n\n    function verifyFlowRules(\n        uint _switch_id, \n        string memory _INPORT, \n        string memory _SRC, \n        string memory _DST, \n        string memory _priority, \n        string memory _OUTPORT\n    ) view public returns(uint) {\n        uint n = getRuleCount(_switch_id);\n\n        for (uint i = 1; i <= n; i++) {\n            Flow_info storage r = switches[_switch_id].rules[i];\n            if (\n                compareStrings(r.inport, _INPORT) &&\n                compareStrings(r.src_mac, _SRC) &&\n                compareStrings(r.dst_mac, _DST) &&\n                compareStrings(r.priority, _priority) &&\n                compareStrings(r.outport, _OUTPORT)\n            ) {\n                return T;\n            }\n        }\n        return F;\n    }\n\n    function compareStrings(string memory a, string memory b) public pure returns (bool) {\n        return (keccak256(abi.encodePacked(a)) == keccak256(abi.encodePacked(b)));\n    }\n}\n",
  "sourcePath": "/Users/nomitachetia/Downloads/final-web3/main/contracts/MyContract.sol",
  "compiler": {
    "name": "solc",
    "version": "0.8.0+commit.c7dfd78e.Emscripten.clang"
  },
  "schemaVersion": "3.4.16",
  "updatedAt": "2024-05-27T07:30:00.814Z",
  "networkType": "ethereum",
  "devdoc": {
    "kind": "dev",
    "methods": {},
    "version": 1
  },
  "userdoc": {
    "kind": "user",
    "methods": {},
    "version": 1
  }
}